{
  "address": "0xA1af0e9FA6e48192d110159983e7F0C5C2270070",
  "abi": [
    {
      "inputs": [
        {
          "internalType": "uint256",
          "name": "feeNumerator",
          "type": "uint256"
        },
        {
          "internalType": "uint256",
          "name": "feeDenominator",
          "type": "uint256"
        },
        {
          "internalType": "address",
          "name": "feeReceiver",
          "type": "address"
        },
        {
          "internalType": "address",
          "name": "feeSetter",
          "type": "address"
        }
      ],
      "stateMutability": "nonpayable",
      "type": "constructor"
    },
    {
      "anonymous": false,
      "inputs": [
        {
          "indexed": true,
          "internalType": "address",
          "name": "creator",
          "type": "address"
        },
        {
          "indexed": true,
          "internalType": "address",
          "name": "community",
          "type": "address"
        }
      ],
      "name": "CommunityDeployment",
      "type": "event"
    },
    {
      "anonymous": false,
      "inputs": [
        {
          "indexed": false,
          "internalType": "uint256",
          "name": "feeNumerator",
          "type": "uint256"
        },
        {
          "indexed": false,
          "internalType": "uint256",
          "name": "feeDenominator",
          "type": "uint256"
        },
        {
          "indexed": true,
          "internalType": "address",
          "name": "receiver",
          "type": "address"
        },
        {
          "indexed": true,
          "internalType": "address",
          "name": "setter",
          "type": "address"
        }
      ],
      "name": "ProtocolFeePolicyUpdate",
      "type": "event"
    },
    {
      "inputs": [
        {
          "internalType": "string",
          "name": "symbol",
          "type": "string"
        },
        {
          "internalType": "string",
          "name": "name",
          "type": "string"
        },
        {
          "internalType": "address",
          "name": "commerceToken",
          "type": "address"
        },
        {
          "internalType": "uint256",
          "name": "membershipPrice",
          "type": "uint256"
        },
        {
          "internalType": "uint256",
          "name": "membershipPeriod",
          "type": "uint256"
        }
      ],
      "name": "createCommunity",
      "outputs": [
        {
          "internalType": "address",
          "name": "",
          "type": "address"
        }
      ],
      "stateMutability": "nonpayable",
      "type": "function"
    },
    {
      "inputs": [],
      "name": "protocolFeePolicy",
      "outputs": [
        {
          "internalType": "uint256",
          "name": "",
          "type": "uint256"
        },
        {
          "internalType": "uint256",
          "name": "",
          "type": "uint256"
        },
        {
          "internalType": "address",
          "name": "",
          "type": "address"
        },
        {
          "internalType": "address",
          "name": "",
          "type": "address"
        }
      ],
      "stateMutability": "view",
      "type": "function"
    },
    {
      "inputs": [
        {
          "internalType": "uint256",
          "name": "feeNumerator",
          "type": "uint256"
        },
        {
          "internalType": "uint256",
          "name": "feeDenominator",
          "type": "uint256"
        },
        {
          "internalType": "address",
          "name": "receiver",
          "type": "address"
        },
        {
          "internalType": "address",
          "name": "setter",
          "type": "address"
        }
      ],
      "name": "setProtocolFeePolicy",
      "outputs": [],
      "stateMutability": "nonpayable",
      "type": "function"
    }
  ],
  "transactionHash": "0xba67dc588c35b0140217f72bf668405912d58727a997c2e4a29c60270c1507c5",
  "args": [
    "1",
    "100",
    "0xC0670B1C4bfb65b43f45c781A0F190Cdc4Bf587E",
    "0xC0a6Ec33a47274E293741CAb4716447A1876CB6F"
  ],
  "numDeployments": 1,
  "solcInputHash": "5ccfcb906adfc956312da13458a5702a",
  "bytecode": "0x608060405234801561001057600080fd5b5060405161368a38038061368a83398101604081905261002f916101a6565b61003b84848484610044565b505050506101eb565b6000831161008c5760405162461bcd60e51b815260206004820152601060248201526f24b73b30b634b210333930b1ba34b7b760811b60448201526064015b60405180910390fd5b6000841180156100a357506001600160a01b038216155b156100e35760405162461bcd60e51b815260206004820152601060248201526f43616e6e6f74206275726e206665657360801b6044820152606401610083565b6001600160a01b03811661012a5760405162461bcd60e51b815260206004820152600e60248201526d24b73b30b634b21039b2ba3a32b960911b6044820152606401610083565b60408051608081018252858152602081018590526001600160a01b03938416918101829052919092166060909101819052600093909355600191909155600280546001600160a01b03199081169092179055600380549091169091179055565b80516001600160a01b03811681146101a157600080fd5b919050565b600080600080608085870312156101bb578384fd5b84519350602085015192506101d26040860161018a565b91506101e06060860161018a565b905092959194509250565b613490806101fa6000396000f3fe60806040523480156200001157600080fd5b5060043610620000465760003560e01c80636df8fd3f146200004b5780639627a2e3146200008b578063d9e87c4a14620000a4575b600080fd5b6000546001546002546003546040805194855260208501939093526001600160a01b03918216928401929092521660608201526080015b60405180910390f35b620000a26200009c36600462000471565b620000d4565b005b620000bb620000b5366004620003d8565b6200018f565b6040516001600160a01b03909116815260200162000082565b6003546001600160a01b03163314620001245760405162461bcd60e51b815260206004820152600d60248201526c1058d8d95cdcc811195b9a5959609a1b60448201526064015b60405180910390fd5b62000132848484846200021c565b806001600160a01b0316826001600160a01b03167f1f1a6e9cda3dbc1ab1cd61b7e88be1d2e08fe0604b708e0385810599f1b64a48868660405162000181929190918252602082015260400190565b60405180910390a350505050565b60008088888888888888604051620001a79062000364565b620001b99796959493929190620004e4565b604051809103906000f080158015620001d6573d6000803e3d6000fd5b506040519091506001600160a01b0382169033907fb318a2b19279938a77fca24073110805b3b1d7c0b96651e064ad4d536ec1d33590600090a398975050505050505050565b60008311620002615760405162461bcd60e51b815260206004820152601060248201526f24b73b30b634b210333930b1ba34b7b760811b60448201526064016200011b565b6000841180156200027957506001600160a01b038216155b15620002bb5760405162461bcd60e51b815260206004820152601060248201526f43616e6e6f74206275726e206665657360801b60448201526064016200011b565b6001600160a01b038116620003045760405162461bcd60e51b815260206004820152600e60248201526d24b73b30b634b21039b2ba3a32b960911b60448201526064016200011b565b60408051608081018252858152602081018590526001600160a01b03938416918101829052919092166060909101819052600093909355600191909155600280546001600160a01b03199081169092179055600380549091169091179055565b612f22806200053983390190565b80356001600160a01b03811681146200038a57600080fd5b919050565b60008083601f840112620003a1578182fd5b5081356001600160401b03811115620003b8578182fd5b602083019150836020828501011115620003d157600080fd5b9250929050565b600080600080600080600060a0888a031215620003f3578283fd5b87356001600160401b03808211156200040a578485fd5b620004188b838c016200038f565b909950975060208a013591508082111562000431578485fd5b50620004408a828b016200038f565b90965094506200045590506040890162000372565b9250606088013591506080880135905092959891949750929550565b6000806000806080858703121562000487578384fd5b8435935060208501359250620004a06040860162000372565b9150620004b06060860162000372565b905092959194509250565b81835281816020850137506000828201602090810191909152601f909101601f19169091010190565b60a081526000620004fa60a08301898b620004bb565b82810360208401526200050f81888a620004bb565b6001600160a01b039690961660408401525050606081019290925260809091015294935050505056fe60806040523480156200001157600080fd5b5060405162002f2238038062002f22833981016040819052620000349162000415565b8351849086906200004d906000906020850190620002bc565b50805162000063906001906020840190620002bc565b505050620000806200007a6200019560201b60201c565b62000199565b6001600b558451620000c85760405162461bcd60e51b815260206004820152600c60248201526b115b5c1d1e481cde5b589bdb60a21b60448201526064015b60405180910390fd5b8351620001055760405162461bcd60e51b815260206004820152600a602482015269456d707479206e616d6560b01b6044820152606401620000bf565b60008111620001485760405162461bcd60e51b815260206004820152600e60248201526d125b9d985b1a59081c195c9a5bd960921b6044820152606401620000bf565b600c80546001600160a01b031916331790556200016532620001eb565b600d80546001600160a01b0319166001600160a01b039490941693909317909255600e55600f5550620005029050565b3390565b600a80546001600160a01b038381166001600160a01b0319831681179093556040519116919082907f8be0079c531659141344cd1fd0a4f28419497f9722a3daafe3b4186f6b6457e090600090a35050565b600a546001600160a01b03163314620002475760405162461bcd60e51b815260206004820181905260248201527f4f776e61626c653a2063616c6c6572206973206e6f7420746865206f776e65726044820152606401620000bf565b6001600160a01b038116620002ae5760405162461bcd60e51b815260206004820152602660248201527f4f776e61626c653a206e6577206f776e657220697320746865207a65726f206160448201526564647265737360d01b6064820152608401620000bf565b620002b98162000199565b50565b828054620002ca90620004af565b90600052602060002090601f016020900481019282620002ee576000855562000339565b82601f106200030957805160ff191683800117855562000339565b8280016001018555821562000339579182015b82811115620003395782518255916020019190600101906200031c565b50620003479291506200034b565b5090565b5b808211156200034757600081556001016200034c565b600082601f83011262000373578081fd5b81516001600160401b0380821115620003905762000390620004ec565b604051601f8301601f19908116603f01168101908282118183101715620003bb57620003bb620004ec565b81604052838152602092508683858801011115620003d7578485fd5b8491505b83821015620003fa5785820183015181830184015290820190620003db565b838211156200040b57848385830101525b9695505050505050565b600080600080600060a086880312156200042d578081fd5b85516001600160401b038082111562000444578283fd5b6200045289838a0162000362565b9650602088015191508082111562000468578283fd5b50620004778882890162000362565b604088015190955090506001600160a01b038116811462000496578182fd5b6060870151608090970151959894975095949392505050565b600181811c90821680620004c457607f821691505b60208210811415620004e657634e487b7160e01b600052602260045260246000fd5b50919050565b634e487b7160e01b600052604160045260246000fd5b612a1080620005126000396000f3fe60806040526004361061015c5760003560e01c80629299e31461016157806301ffc9a71461018357806306fdde03146101b8578063079a361a146101da578063081812fc14610212578063095ea7b3146102325780630de3226b146102525780630fce16961461027657806318160ddd1461028c57806323b872dd146102a15780632f745c59146102c157806342842e0e146102e15780634f6ccce7146103015780636352211e146103215780636533fce61461034157806370a082311461036157806370fa23c714610381578063715018a6146103ae5780638da5cb5b146103c35780638f449a05146103d857806395d89b41146103e0578063963310af146103f5578063a22cb4651461040a578063b88d4fde1461042a578063c45a01551461044a578063c87b56dd1461046a578063d0d3a3b51461048a578063e985e9c5146104aa578063f17970a3146104ca578063f2fde38b14610500575b600080fd5b34801561016d57600080fd5b5061018161017c366004612548565b610520565b005b34801561018f57600080fd5b506101a361019e366004612510565b6105a9565b60405190151581526020015b60405180910390f35b3480156101c457600080fd5b506101cd6105d4565b6040516101af9190612725565b3480156101e657600080fd5b50600d546101fa906001600160a01b031681565b6040516001600160a01b0390911681526020016101af565b34801561021e57600080fd5b506101fa61022d3660046125b4565b610666565b34801561023e57600080fd5b5061018161024d366004612495565b6106ee565b34801561025e57600080fd5b50610268600e5481565b6040519081526020016101af565b34801561028257600080fd5b50610268600f5481565b34801561029857600080fd5b50600854610268565b3480156102ad57600080fd5b506101816102bc366004612350565b6107ff565b3480156102cd57600080fd5b506102686102dc366004612495565b610830565b3480156102ed57600080fd5b506101816102fc366004612350565b6108c6565b34801561030d57600080fd5b5061026861031c3660046125b4565b6108e1565b34801561032d57600080fd5b506101fa61033c3660046125b4565b610982565b34801561034d57600080fd5b5061018161035c3660046122fc565b6109f9565b34801561036d57600080fd5b5061026861037c3660046122fc565b610b0a565b34801561038d57600080fd5b5061026861039c3660046125b4565b60009081526012602052604090205490565b3480156103ba57600080fd5b50610181610b91565b3480156103cf57600080fd5b506101fa610bcc565b610181610bdb565b3480156103ec57600080fd5b506101cd610d9f565b34801561040157600080fd5b506101cd610dae565b34801561041657600080fd5b50610181610425366004612468565b610e3c565b34801561043657600080fd5b50610181610445366004612390565b610e4b565b34801561045657600080fd5b50600c546101fa906001600160a01b031681565b34801561047657600080fd5b506101cd6104853660046125b4565b610e83565b34801561049657600080fd5b506101816104a53660046124c0565b610f5b565b3480156104b657600080fd5b506101a36104c5366004612318565b611025565b3480156104d657600080fd5b506102686104e53660046122fc565b6001600160a01b031660009081526013602052604090205490565b34801561050c57600080fd5b5061018161051b3660046122fc565b611053565b33610529610bcc565b6001600160a01b0316146105585760405162461bcd60e51b815260040161054f9061278a565b60405180910390fd5b61056460108383612263565b508181604051610575929190612676565b604051908190038120907f2f0f14e762c5274a3ae9b9269990e561d7dd65c0e9e42a2062166e4c02996c2a90600090a25050565b60006001600160e01b0319821663780e9d6360e01b14806105ce57506105ce826110f3565b92915050565b6060600080546105e3906128d5565b80601f016020809104026020016040519081016040528092919081815260200182805461060f906128d5565b801561065c5780601f106106315761010080835404028352916020019161065c565b820191906000526020600020905b81548152906001019060200180831161063f57829003601f168201915b5050505050905090565b600061067182611143565b6106d25760405162461bcd60e51b815260206004820152602c60248201527f4552433732313a20617070726f76656420717565727920666f72206e6f6e657860448201526b34b9ba32b73a103a37b5b2b760a11b606482015260840161054f565b506000908152600460205260409020546001600160a01b031690565b60006106f982610982565b9050806001600160a01b0316836001600160a01b031614156107675760405162461bcd60e51b815260206004820152602160248201527f4552433732313a20617070726f76616c20746f2063757272656e74206f776e656044820152603960f91b606482015260840161054f565b336001600160a01b038216148061078357506107838133611025565b6107f05760405162461bcd60e51b815260206004820152603860248201527f4552433732313a20617070726f76652063616c6c6572206973206e6f74206f776044820152771b995c881b9bdc88185c1c1c9bdd995908199bdc88185b1b60421b606482015260840161054f565b6107fa8383611160565b505050565b61080933826111ce565b6108255760405162461bcd60e51b815260040161054f906127bf565b6107fa838383611298565b600061083b83610b0a565b821061089d5760405162461bcd60e51b815260206004820152602b60248201527f455243373231456e756d657261626c653a206f776e657220696e646578206f7560448201526a74206f6620626f756e647360a81b606482015260840161054f565b506001600160a01b03919091166000908152600660209081526040808320938352929052205490565b6107fa83838360405180602001604052806000815250610e4b565b60006108ec60085490565b821061094f5760405162461bcd60e51b815260206004820152602c60248201527f455243373231456e756d657261626c653a20676c6f62616c20696e646578206f60448201526b7574206f6620626f756e647360a01b606482015260840161054f565b6008828154811061097057634e487b7160e01b600052603260045260246000fd5b90600052602060002001549050919050565b6000818152600260205260408120546001600160a01b0316806105ce5760405162461bcd60e51b815260206004820152602960248201527f4552433732313a206f776e657220717565727920666f72206e6f6e657869737460448201526832b73a103a37b5b2b760b91b606482015260840161054f565b33610a02610bcc565b6001600160a01b031614610a285760405162461bcd60e51b815260040161054f9061278a565b6002600b541415610a4b5760405162461bcd60e51b815260040161054f90612810565b6002600b556001600160a01b03811660009081526013602052604090205480610a745750610b02565b6001600160a01b038216600081815260136020526040812055610aa057610a9b338261142d565b610ac8565b610ab46001600160a01b038316308361149e565b610ac86001600160a01b0383163383611581565b60405181906001600160a01b0384169033907f0183aa026360b100e08f7ac2c4bf8dd7673236bd0e14b5e70d5fccf7d8cf329190600090a4505b506001600b55565b60006001600160a01b038216610b755760405162461bcd60e51b815260206004820152602a60248201527f4552433732313a2062616c616e636520717565727920666f7220746865207a65604482015269726f206164647265737360b01b606482015260840161054f565b506001600160a01b031660009081526003602052604090205490565b33610b9a610bcc565b6001600160a01b031614610bc05760405162461bcd60e51b815260040161054f9061278a565b610bca60006115a0565b565b600a546001600160a01b031690565b6002600b541415610bfe5760405162461bcd60e51b815260040161054f90612810565b6002600b819055506000806000600c60009054906101000a90046001600160a01b03166001600160a01b0316636df8fd3f6040518163ffffffff1660e01b815260040160806040518083038186803b158015610c5957600080fd5b505afa158015610c6d573d6000803e3d6000fd5b505050506040513d601f19601f82011682018060405250810190610c9191906125e4565b5092509250925060008360001415610cab57506000610ccd565b610cca83610cc486600e546115f290919063ffffffff16565b906115fe565b90505b600e54600090610cdd908361160a565b600d546001600160a01b0316600090815260136020526040902054909150610d059082611616565b600d80546001600160a01b039081166000908152601360205260409020929092555416610d8057600e543414610d715760405162461bcd60e51b8152602060048201526011602482015270141c9a58d9481b9bdd081b585d18da1959607a1b604482015260640161054f565b610d7b838361142d565b610d8b565b610d8b818385611622565b610d9361175f565b50506001600b55505050565b6060600180546105e3906128d5565b60108054610dbb906128d5565b80601f0160208091040260200160405190810160405280929190818152602001828054610de7906128d5565b8015610e345780601f10610e0957610100808354040283529160200191610e34565b820191906000526020600020905b815481529060010190602001808311610e1757829003601f168201915b505050505081565b610e47338383611898565b5050565b610e5533836111ce565b610e715760405162461bcd60e51b815260040161054f906127bf565b610e7d84848484611963565b50505050565b6060610e8e82611143565b610ef25760405162461bcd60e51b815260206004820152602f60248201527f4552433732314d657461646174613a2055524920717565727920666f72206e6f60448201526e3732bc34b9ba32b73a103a37b5b2b760891b606482015260840161054f565b6000610f0960408051602081019091526000815290565b90506000815111610f295760405180602001604052806000815250610f54565b80610f3384611996565b604051602001610f44929190612686565b6040516020818303038152906040525b9392505050565b33610f64610bcc565b6001600160a01b031614610f8a5760405162461bcd60e51b815260040161054f9061278a565b60008111610fcb5760405162461bcd60e51b815260206004820152600e60248201526d125b9d985b1a59081c195c9a5bd960921b604482015260640161054f565b600d80546001600160a01b0319166001600160a01b038516908117909155600e839055600f829055604051829184917f706e3c92973276fbc92a98f4323c1d9e15f08c95a4886f2e8d183e5deff62bc390600090a4505050565b6001600160a01b03918216600090815260056020908152604080832093909416825291909152205460ff1690565b3361105c610bcc565b6001600160a01b0316146110825760405162461bcd60e51b815260040161054f9061278a565b6001600160a01b0381166110e75760405162461bcd60e51b815260206004820152602660248201527f4f776e61626c653a206e6577206f776e657220697320746865207a65726f206160448201526564647265737360d01b606482015260840161054f565b6110f0816115a0565b50565b60006001600160e01b031982166380ac58cd60e01b148061112457506001600160e01b03198216635b5e139f60e01b145b806105ce57506301ffc9a760e01b6001600160e01b03198316146105ce565b6000908152600260205260409020546001600160a01b0316151590565b600081815260046020526040902080546001600160a01b0319166001600160a01b038416908117909155819061119582610982565b6001600160a01b03167f8c5be1e5ebec7d5bd14f71427d1e84f3dd0314c0f7b2291e5b200ac8c7c3b92560405160405180910390a45050565b60006111d982611143565b61123a5760405162461bcd60e51b815260206004820152602c60248201527f4552433732313a206f70657261746f7220717565727920666f72206e6f6e657860448201526b34b9ba32b73a103a37b5b2b760a11b606482015260840161054f565b600061124583610982565b9050806001600160a01b0316846001600160a01b031614806112805750836001600160a01b031661127584610666565b6001600160a01b0316145b8061129057506112908185611025565b949350505050565b826001600160a01b03166112ab82610982565b6001600160a01b03161461130f5760405162461bcd60e51b815260206004820152602560248201527f4552433732313a207472616e736665722066726f6d20696e636f72726563742060448201526437bbb732b960d91b606482015260840161054f565b6001600160a01b0382166113715760405162461bcd60e51b8152602060048201526024808201527f4552433732313a207472616e7366657220746f20746865207a65726f206164646044820152637265737360e01b606482015260840161054f565b61137c838383611aaf565b611387600082611160565b6001600160a01b03831660009081526003602052604081208054600192906113b0908490612892565b90915550506001600160a01b03821660009081526003602052604081208054600192906113de908490612847565b909155505060008181526002602052604080822080546001600160a01b0319166001600160a01b0386811691821790925591518493918716916000805160206129bb83398151915291a4505050565b6000826001600160a01b03168260405160006040518083038185875af1925050503d806000811461147a576040519150601f19603f3d011682016040523d82523d6000602084013e61147f565b606091505b50509050806107fa57634e487b7160e01b600052600160045260246000fd5b600081846001600160a01b031663dd62ed3e30866040518363ffffffff1660e01b81526004016114cf9291906126b5565b60206040518083038186803b1580156114e757600080fd5b505afa1580156114fb573d6000803e3d6000fd5b505050506040513d601f19601f8201168201806040525081019061151f91906125cc565b6115299190612847565b9050610e7d8463095ea7b360e01b858460405160240161154a92919061270c565b60408051601f198184030181529190526020810180516001600160e01b03166001600160e01b031990931692909217909152611b67565b6107fa8363a9059cbb60e01b848460405160240161154a92919061270c565b600a80546001600160a01b038381166001600160a01b0319831681179093556040519116919082907f8be0079c531659141344cd1fd0a4f28419497f9722a3daafe3b4186f6b6457e090600090a35050565b6000610f548284612873565b6000610f54828461285f565b6000610f548284612892565b6000610f548284612847565b34156116635760405162461bcd60e51b815260206004820152601060248201526f115512081b9bdd081858d8d95c1d195960821b604482015260640161054f565b600e54600d54604051636eb1769f60e11b81526001600160a01b039091169063dd62ed3e9061169890339030906004016126b5565b60206040518083038186803b1580156116b057600080fd5b505afa1580156116c4573d6000803e3d6000fd5b505050506040513d601f19601f820116820180604052508101906116e891906125cc565b101561172f5760405162461bcd60e51b8152602060048201526016602482015275496e73756666696369656e7420616c6c6f77616e636560501b604482015260640161054f565b600d54611747906001600160a01b0316333086611c39565b600d546107fa906001600160a01b0316338385611c39565b600161176a33610b0a565b11156117a95760405162461bcd60e51b815260206004820152600e60248201526d4475706c6963617465204e46547360901b604482015260640161054f565b6000806117b533610b0a565b600114156117cf576117c8336000610830565b90506117e0565b50506011546001906117e033611c71565b6000818152601260205260409020544381111561180c57600f54611805908290611616565b905061181d565b600f5461181a904390611616565b90505b6000828152601260205260409020819055821561186657604051819083907f72c19717536694464afff634fc737dc627dfe3dc6a4119cca3b1b67c6b3b4e9c90600090a3505050565b604051819083907f956bf2a86df7fecbd0dae77af9b40f464a19669615c5fb346788f0e61ddda5ad90600090a3505050565b816001600160a01b0316836001600160a01b031614156118f65760405162461bcd60e51b815260206004820152601960248201527822a9219b99189d1030b8383937bb32903a379031b0b63632b960391b604482015260640161054f565b6001600160a01b03838116600081815260056020908152604080832094871680845294825291829020805460ff191686151590811790915591519182527f17307eab39ab6107e8899845ad3d59bd9653f200f220920489ca2b5937696c31910160405180910390a3505050565b61196e848484611298565b61197a84848484611c96565b610e7d5760405162461bcd60e51b815260040161054f90612738565b6060816119ba5750506040805180820190915260018152600360fc1b602082015290565b8160005b81156119e457806119ce81612910565b91506119dd9050600a8361285f565b91506119be565b6000816001600160401b03811115611a0c57634e487b7160e01b600052604160045260246000fd5b6040519080825280601f01601f191660200182016040528015611a36576020820181803683370190505b5090505b841561129057611a4b600183612892565b9150611a58600a8661292b565b611a63906030612847565b60f81b818381518110611a8657634e487b7160e01b600052603260045260246000fd5b60200101906001600160f81b031916908160001a905350611aa8600a8661285f565b9450611a3a565b6001600160a01b038316611b0a57611b0581600880546000838152600960205260408120829055600182018355919091527ff3f7a9fe364faab93b216da50a3214154f22a0a2b415b23a84c8169e8b636ee30155565b611b2d565b816001600160a01b0316836001600160a01b031614611b2d57611b2d8382611daa565b6001600160a01b038216611b44576107fa81611e47565b826001600160a01b0316826001600160a01b0316146107fa576107fa8282611f20565b6000611bbc826040518060400160405280602081526020017f5361666545524332303a206c6f772d6c6576656c2063616c6c206661696c6564815250856001600160a01b0316611f649092919063ffffffff16565b8051909150156107fa5780806020019051810190611bda91906124f4565b6107fa5760405162461bcd60e51b815260206004820152602a60248201527f5361666545524332303a204552433230206f7065726174696f6e20646964206e6044820152691bdd081cdd58d8d9595960b21b606482015260840161054f565b6040516001600160a01b0380851660248301528316604482015260648101829052610e7d9085906323b872dd60e01b9060840161154a565b6000611c7c60115490565b9050611c8c601180546001019055565b610e478282611f73565b6000611caa846001600160a01b0316611f8d565b15611d9f57604051630a85bd0160e11b81526001600160a01b0385169063150b7a0290611ce19033908990889088906004016126cf565b602060405180830381600087803b158015611cfb57600080fd5b505af1925050508015611d2b575060408051601f3d908101601f19168201909252611d289181019061252c565b60015b611d85573d808015611d59576040519150601f19603f3d011682016040523d82523d6000602084013e611d5e565b606091505b508051611d7d5760405162461bcd60e51b815260040161054f90612738565b805181602001fd5b6001600160e01b031916630a85bd0160e11b149050611290565b506001949350505050565b60006001611db784610b0a565b611dc19190612892565b600083815260076020526040902054909150808214611e14576001600160a01b03841660009081526006602090815260408083208584528252808320548484528184208190558352600790915290208190555b5060009182526007602090815260408084208490556001600160a01b039094168352600681528383209183525290812055565b600854600090611e5990600190612892565b60008381526009602052604081205460088054939450909284908110611e8f57634e487b7160e01b600052603260045260246000fd5b906000526020600020015490508060088381548110611ebe57634e487b7160e01b600052603260045260246000fd5b6000918252602080832090910192909255828152600990915260408082208490558582528120556008805480611f0457634e487b7160e01b600052603160045260246000fd5b6001900381819060005260206000200160009055905550505050565b6000611f2b83610b0a565b6001600160a01b039093166000908152600660209081526040808320868452825280832085905593825260079052919091209190915550565b60606112908484600085611f9c565b610e478282604051806020016040528060008152506120cb565b6001600160a01b03163b151590565b606082471015611ffd5760405162461bcd60e51b815260206004820152602660248201527f416464726573733a20696e73756666696369656e742062616c616e636520666f6044820152651c8818d85b1b60d21b606482015260840161054f565b61200685611f8d565b6120525760405162461bcd60e51b815260206004820152601d60248201527f416464726573733a2063616c6c20746f206e6f6e2d636f6e7472616374000000604482015260640161054f565b600080866001600160a01b0316858760405161206e919061265a565b60006040518083038185875af1925050503d80600081146120ab576040519150601f19603f3d011682016040523d82523d6000602084013e6120b0565b606091505b50915091506120c08282866120fe565b979650505050505050565b6120d58383612137565b6120e26000848484611c96565b6107fa5760405162461bcd60e51b815260040161054f90612738565b6060831561210d575081610f54565b82511561211d5782518084602001fd5b8160405162461bcd60e51b815260040161054f9190612725565b6001600160a01b03821661218d5760405162461bcd60e51b815260206004820181905260248201527f4552433732313a206d696e7420746f20746865207a65726f2061646472657373604482015260640161054f565b61219681611143565b156121e25760405162461bcd60e51b815260206004820152601c60248201527b115490cdcc8c4e881d1bdad95b88185b1c9958591e481b5a5b9d195960221b604482015260640161054f565b6121ee60008383611aaf565b6001600160a01b0382166000908152600360205260408120805460019290612217908490612847565b909155505060008181526002602052604080822080546001600160a01b0319166001600160a01b03861690811790915590518392906000805160206129bb833981519152908290a45050565b82805461226f906128d5565b90600052602060002090601f01602090048101928261229157600085556122d7565b82601f106122aa5782800160ff198235161785556122d7565b828001600101855582156122d7579182015b828111156122d75782358255916020019190600101906122bc565b506122e39291506122e7565b5090565b5b808211156122e357600081556001016122e8565b60006020828403121561230d578081fd5b8135610f5481612981565b6000806040838503121561232a578081fd5b823561233581612981565b9150602083013561234581612981565b809150509250929050565b600080600060608486031215612364578081fd5b833561236f81612981565b9250602084013561237f81612981565b929592945050506040919091013590565b600080600080608085870312156123a5578081fd5b84356123b081612981565b935060208501356123c081612981565b92506040850135915060608501356001600160401b03808211156123e2578283fd5b818701915087601f8301126123f5578283fd5b8135818111156124075761240761296b565b604051601f8201601f19908116603f0116810190838211818310171561242f5761242f61296b565b816040528281528a6020848701011115612447578586fd5b82602086016020830137918201602001949094529598949750929550505050565b6000806040838503121561247a578182fd5b823561248581612981565b9150602083013561234581612996565b600080604083850312156124a7578182fd5b82356124b281612981565b946020939093013593505050565b6000806000606084860312156124d4578283fd5b83356124df81612981565b95602085013595506040909401359392505050565b600060208284031215612505578081fd5b8151610f5481612996565b600060208284031215612521578081fd5b8135610f54816129a4565b60006020828403121561253d578081fd5b8151610f54816129a4565b6000806020838503121561255a578182fd5b82356001600160401b0380821115612570578384fd5b818501915085601f830112612583578384fd5b813581811115612591578485fd5b8660208285010111156125a2578485fd5b60209290920196919550909350505050565b6000602082840312156125c5578081fd5b5035919050565b6000602082840312156125dd578081fd5b5051919050565b600080600080608085870312156125f9578182fd5b8451935060208501519250604085015161261281612981565b606086015190925061262381612981565b939692955090935050565b600081518084526126468160208601602086016128a9565b601f01601f19169290920160200192915050565b6000825161266c8184602087016128a9565b9190910192915050565b8183823760009101908152919050565b600083516126988184602088016128a9565b8351908301906126ac8183602088016128a9565b01949350505050565b6001600160a01b0392831681529116602082015260400190565b6001600160a01b03858116825284166020820152604081018390526080606082018190526000906127029083018461262e565b9695505050505050565b6001600160a01b03929092168252602082015260400190565b602081526000610f54602083018461262e565b60208082526032908201527f4552433732313a207472616e7366657220746f206e6f6e20455243373231526560408201527131b2b4bb32b91034b6b83632b6b2b73a32b960711b606082015260800190565b6020808252818101527f4f776e61626c653a2063616c6c6572206973206e6f7420746865206f776e6572604082015260600190565b60208082526031908201527f4552433732313a207472616e736665722063616c6c6572206973206e6f74206f6040820152701ddb995c881b9bdc88185c1c1c9bdd9959607a1b606082015260800190565b6020808252601f908201527f5265656e7472616e637947756172643a207265656e7472616e742063616c6c00604082015260600190565b6000821982111561285a5761285a61293f565b500190565b60008261286e5761286e612955565b500490565b600081600019048311821515161561288d5761288d61293f565b500290565b6000828210156128a4576128a461293f565b500390565b60005b838110156128c45781810151838201526020016128ac565b83811115610e7d5750506000910152565b600181811c908216806128e957607f821691505b6020821081141561290a57634e487b7160e01b600052602260045260246000fd5b50919050565b60006000198214156129245761292461293f565b5060010190565b60008261293a5761293a612955565b500690565b634e487b7160e01b600052601160045260246000fd5b634e487b7160e01b600052601260045260246000fd5b634e487b7160e01b600052604160045260246000fd5b6001600160a01b03811681146110f057600080fd5b80151581146110f057600080fd5b6001600160e01b0319811681146110f057600080fdfeddf252ad1be2c89b69c2b068fc378daa952ba7f163c4a11628f55a4df523b3efa2646970667358221220ddef89045447c80080bc4e74212119760a4e1309ffcb637672ea9383534ed63164736f6c63430008040033a2646970667358221220c0e2765e2b9828e80e445c6bb6b92f0812e6ac48e523caa32dbf3e8890be393164736f6c63430008040033",
  "devdoc": {
    "kind": "dev",
    "methods": {},
    "version": 1
  },
  "userdoc": {
    "kind": "user",
    "methods": {
      "createCommunity(string,string,address,uint256,uint256)": {
        "notice": "Deploy new community"
      },
      "protocolFeePolicy()": {
        "notice": "Get current protocol fee policy"
      },
      "setProtocolFeePolicy(uint256,uint256,address,address)": {
        "notice": "Set protocol fee policy"
      }
    },
    "version": 1
  },
  "storageLayout": {
    "storage": [
      {
        "astId": 3418,
        "contract": "contracts/CommunityFactory.sol:CommunityFactory",
        "label": "_protocolFeePolicy",
        "offset": 0,
        "slot": "0",
        "type": "t_struct(FeePolicy)3415_storage"
      }
    ],
    "types": {
      "t_address": {
        "encoding": "inplace",
        "label": "address",
        "numberOfBytes": "20"
      },
      "t_struct(FeePolicy)3415_storage": {
        "encoding": "inplace",
        "label": "struct CommunityFactory.FeePolicy",
        "members": [
          {
            "astId": 3408,
            "contract": "contracts/CommunityFactory.sol:CommunityFactory",
            "label": "feeNumerator",
            "offset": 0,
            "slot": "0",
            "type": "t_uint256"
          },
          {
            "astId": 3410,
            "contract": "contracts/CommunityFactory.sol:CommunityFactory",
            "label": "feeDenominator",
            "offset": 0,
            "slot": "1",
            "type": "t_uint256"
          },
          {
            "astId": 3412,
            "contract": "contracts/CommunityFactory.sol:CommunityFactory",
            "label": "receiver",
            "offset": 0,
            "slot": "2",
            "type": "t_address"
          },
          {
            "astId": 3414,
            "contract": "contracts/CommunityFactory.sol:CommunityFactory",
            "label": "setter",
            "offset": 0,
            "slot": "3",
            "type": "t_address"
          }
        ],
        "numberOfBytes": "128"
      },
      "t_uint256": {
        "encoding": "inplace",
        "label": "uint256",
        "numberOfBytes": "32"
      }
    }
  }
}